{
  "contractName": "EstPositif",
  "abi": [
    {
      "inputs": [
        {
          "internalType": "int256",
          "name": "x",
          "type": "int256"
        }
      ],
      "name": "estPositif",
      "outputs": [
        {
          "internalType": "bool",
          "name": "",
          "type": "bool"
        }
      ],
      "stateMutability": "pure",
      "type": "function"
    }
  ],
  "bytecode": "0x608060405234801561001057600080fd5b5061012a806100206000396000f3fe6080604052348015600f57600080fd5b506004361060285760003560e01c8063fa046abd14602d575b600080fd5b60436004803603810190603f9190609a565b6057565b604051604e919060db565b60405180910390f35b6000808212159050919050565b600080fd5b6000819050919050565b607a816069565b8114608457600080fd5b50565b6000813590506094816073565b92915050565b60006020828403121560ad5760ac6064565b5b600060b9848285016087565b91505092915050565b60008115159050919050565b60d58160c2565b82525050565b600060208201905060ee600083018460ce565b9291505056fea26469706673582212203ce0fc2894e8fdf75171c69776b4ece7e1a8dbb3400e2001c40834b8f57eb76a64736f6c634300080c0033",
  "immutableReferences": {},
  "source": "// SPDX-License-Identifier: MIT\r\npragma solidity ^0.8.12;\r\n\r\ncontract EstPositif {\r\n    function estPositif(int x) public pure returns (bool) {\r\n        return x >= 0;\r\n    }\r\n}",
  "sourcePath": "C:\\Users\\sanaa\\Downloads\\TPF-App\\contracts\\EstPositif.sol",
  "compiler": {
    "name": "solc",
    "version": "0.8.12+commit.f00d7308.Emscripten.clang"
  },
  "schemaVersion": "3.4.16",
  "updatedAt": "2025-07-28T18:22:32.488Z",
  "devdoc": {
    "kind": "dev",
    "methods": {},
    "version": 1
  },
  "userdoc": {
    "kind": "user",
    "methods": {},
    "version": 1
  }
}