{
  "contractName": "GestionChaines",
  "abi": [
    {
      "inputs": [],
      "name": "message",
      "outputs": [
        {
          "internalType": "string",
          "name": "",
          "type": "string"
        }
      ],
      "stateMutability": "view",
      "type": "function"
    },
    {
      "inputs": [
        {
          "internalType": "string",
          "name": "_msg",
          "type": "string"
        }
      ],
      "name": "setMessage",
      "outputs": [],
      "stateMutability": "nonpayable",
      "type": "function"
    },
    {
      "inputs": [],
      "name": "getMessage",
      "outputs": [
        {
          "internalType": "string",
          "name": "",
          "type": "string"
        }
      ],
      "stateMutability": "view",
      "type": "function"
    },
    {
      "inputs": [
        {
          "internalType": "string",
          "name": "a",
          "type": "string"
        },
        {
          "internalType": "string",
          "name": "b",
          "type": "string"
        }
      ],
      "name": "concatener",
      "outputs": [
        {
          "internalType": "string",
          "name": "",
          "type": "string"
        }
      ],
      "stateMutability": "pure",
      "type": "function"
    },
    {
      "inputs": [
        {
          "internalType": "string",
          "name": "other",
          "type": "string"
        }
      ],
      "name": "concatenerAvec",
      "outputs": [
        {
          "internalType": "string",
          "name": "",
          "type": "string"
        }
      ],
      "stateMutability": "view",
      "type": "function"
    },
    {
      "inputs": [
        {
          "internalType": "string",
          "name": "s",
          "type": "string"
        }
      ],
      "name": "longueur",
      "outputs": [
        {
          "internalType": "uint256",
          "name": "",
          "type": "uint256"
        }
      ],
      "stateMutability": "pure",
      "type": "function"
    },
    {
      "inputs": [
        {
          "internalType": "string",
          "name": "a",
          "type": "string"
        },
        {
          "internalType": "string",
          "name": "b",
          "type": "string"
        }
      ],
      "name": "comparer",
      "outputs": [
        {
          "internalType": "bool",
          "name": "",
          "type": "bool"
        }
      ],
      "stateMutability": "pure",
      "type": "function"
    }
  ],
  "bytecode": "0x608060405234801561001057600080fd5b506108d3806100206000396000f3fe608060405234801561001057600080fd5b506004361061007d5760003560e01c80634f7596871161005b5780634f759687146100fe5780639103ca331461012e578063ce6d41de1461015e578063e21f37ce1461017c5761007d565b806317646f8914610082578063368b8772146100b2578063413d4384146100ce575b600080fd5b61009c6004803603810190610097919061054f565b61019a565b6040516100a991906105e2565b60405180910390f35b6100cc60048036038101906100c791906105fd565b6101b5565b005b6100e860048036038101906100e391906105fd565b6101cf565b6040516100f591906106ce565b60405180910390f35b610118600480360381019061011391906105fd565b6101fb565b6040516101259190610709565b60405180910390f35b6101486004803603810190610143919061054f565b610206565b60405161015591906106ce565b60405180910390f35b610166610232565b60405161017391906106ce565b60405180910390f35b6101846102c4565b60405161019191906106ce565b60405180910390f35b60008180519060200120838051906020012014905092915050565b80600090805190602001906101cb929190610352565b5050565b60606000826040516020016101e5929190610855565b6040516020818303038152906040529050919050565b600081519050919050565b6060828260405160200161021b929190610879565b604051602081830303815290604052905092915050565b60606000805461024190610753565b80601f016020809104026020016040519081016040528092919081815260200182805461026d90610753565b80156102ba5780601f1061028f576101008083540402835291602001916102ba565b820191906000526020600020905b81548152906001019060200180831161029d57829003601f168201915b5050505050905090565b600080546102d190610753565b80601f01602080910402602001604051908101604052809291908181526020018280546102fd90610753565b801561034a5780601f1061031f5761010080835404028352916020019161034a565b820191906000526020600020905b81548152906001019060200180831161032d57829003601f168201915b505050505081565b82805461035e90610753565b90600052602060002090601f01602090048101928261038057600085556103c7565b82601f1061039957805160ff19168380011785556103c7565b828001600101855582156103c7579182015b828111156103c65782518255916020019190600101906103ab565b5b5090506103d491906103d8565b5090565b5b808211156103f15760008160009055506001016103d9565b5090565b6000604051905090565b600080fd5b600080fd5b600080fd5b600080fd5b6000601f19601f8301169050919050565b7f4e487b7100000000000000000000000000000000000000000000000000000000600052604160045260246000fd5b61045c82610413565b810181811067ffffffffffffffff8211171561047b5761047a610424565b5b80604052505050565b600061048e6103f5565b905061049a8282610453565b919050565b600067ffffffffffffffff8211156104ba576104b9610424565b5b6104c382610413565b9050602081019050919050565b82818337600083830152505050565b60006104f26104ed8461049f565b610484565b90508281526020810184848401111561050e5761050d61040e565b5b6105198482856104d0565b509392505050565b600082601f83011261053657610535610409565b5b81356105468482602086016104df565b91505092915050565b60008060408385031215610566576105656103ff565b5b600083013567ffffffffffffffff81111561058457610583610404565b5b61059085828601610521565b925050602083013567ffffffffffffffff8111156105b1576105b0610404565b5b6105bd85828601610521565b9150509250929050565b60008115159050919050565b6105dc816105c7565b82525050565b60006020820190506105f760008301846105d3565b92915050565b600060208284031215610613576106126103ff565b5b600082013567ffffffffffffffff81111561063157610630610404565b5b61063d84828501610521565b91505092915050565b600081519050919050565b600082825260208201905092915050565b60005b83811015610680578082015181840152602081019050610665565b8381111561068f576000848401525b50505050565b60006106a082610646565b6106aa8185610651565b93506106ba818560208601610662565b6106c381610413565b840191505092915050565b600060208201905081810360008301526106e88184610695565b905092915050565b6000819050919050565b610703816106f0565b82525050565b600060208201905061071e60008301846106fa565b92915050565b7f4e487b7100000000000000000000000000000000000000000000000000000000600052602260045260246000fd5b6000600282049050600182168061076b57607f821691505b6020821081141561077f5761077e610724565b5b50919050565b600081905092915050565b60008190508160005260206000209050919050565b600081546107b281610753565b6107bc8186610785565b945060018216600081146107d757600181146107e85761081b565b60ff1983168652818601935061081b565b6107f185610790565b60005b83811015610813578154818901526001820191506020810190506107f4565b838801955050505b50505092915050565b600061082f82610646565b6108398185610785565b9350610849818560208601610662565b80840191505092915050565b600061086182856107a5565b915061086d8284610824565b91508190509392505050565b60006108858285610824565b91506108918284610824565b9150819050939250505056fea2646970667358221220f8645a3b5523b4e1ab21edd2248d0500fb8e43be5d4bbd77f2ce054bfc25740264736f6c634300080c0033",
  "immutableReferences": {},
  "source": "// SPDX-License-Identifier: MIT\r\npragma solidity ^0.8.12;\r\n\r\ncontract GestionChaines {\r\n    string public message;\r\n\r\n    function setMessage(string memory _msg) public {\r\n        message = _msg;\r\n    }\r\n\r\n    function getMessage() public view returns (string memory) {\r\n        return message;\r\n    }\r\n\r\n    function concatener(string memory a, string memory b) public pure returns (string memory) {\r\n        return string.concat(a, b);\r\n    }\r\n\r\n    function concatenerAvec(string memory other) public view returns (string memory) {\r\n        return string.concat(message, other);\r\n    }\r\n\r\n    function longueur(string memory s) public pure returns (uint) {\r\n        return bytes(s).length;\r\n    }\r\n\r\n    function comparer(string memory a, string memory b) public pure returns (bool) {\r\n        return keccak256(bytes(a)) == keccak256(bytes(b));\r\n    }\r\n}",
  "sourcePath": "C:\\Users\\sanaa\\Downloads\\TPF-App\\contracts\\GestionChaines.sol",
  "compiler": {
    "name": "solc",
    "version": "0.8.12+commit.f00d7308.Emscripten.clang"
  },
  "schemaVersion": "3.4.16",
  "updatedAt": "2025-07-28T18:22:32.499Z",
  "devdoc": {
    "kind": "dev",
    "methods": {},
    "version": 1
  },
  "userdoc": {
    "kind": "user",
    "methods": {},
    "version": 1
  }
}