{
  "contractName": "GestionNombres",
  "abi": [
    {
      "inputs": [],
      "stateMutability": "nonpayable",
      "type": "constructor"
    },
    {
      "inputs": [
        {
          "internalType": "uint256",
          "name": "",
          "type": "uint256"
        }
      ],
      "name": "nombres",
      "outputs": [
        {
          "internalType": "uint256",
          "name": "",
          "type": "uint256"
        }
      ],
      "stateMutability": "view",
      "type": "function"
    },
    {
      "inputs": [
        {
          "internalType": "uint256",
          "name": "nombre",
          "type": "uint256"
        }
      ],
      "name": "ajouterNombre",
      "outputs": [],
      "stateMutability": "nonpayable",
      "type": "function"
    },
    {
      "inputs": [
        {
          "internalType": "uint256",
          "name": "index",
          "type": "uint256"
        }
      ],
      "name": "getElement",
      "outputs": [
        {
          "internalType": "uint256",
          "name": "",
          "type": "uint256"
        }
      ],
      "stateMutability": "view",
      "type": "function"
    },
    {
      "inputs": [],
      "name": "afficheTableau",
      "outputs": [
        {
          "internalType": "uint256[]",
          "name": "",
          "type": "uint256[]"
        }
      ],
      "stateMutability": "view",
      "type": "function"
    },
    {
      "inputs": [],
      "name": "calculerSomme",
      "outputs": [
        {
          "internalType": "uint256",
          "name": "",
          "type": "uint256"
        }
      ],
      "stateMutability": "view",
      "type": "function"
    }
  ],
  "bytecode": "0x608060405234801561001057600080fd5b506000600190806001815401808255809150506001900390600052602060002001600090919091909150556000600290806001815401808255809150506001900390600052602060002001600090919091909150556000600390806001815401808255809150506001900390600052602060002001600090919091909150556105aa8061009e6000396000f3fe608060405234801561001057600080fd5b50600436106100575760003560e01c80631f4440b01461005c5780633a7d22bc1461007a5780637692fb5f146100aa578063bd92c667146100da578063e66df334146100f6575b600080fd5b610064610114565b6040516100719190610350565b60405180910390f35b610094600480360381019061008f91906103a3565b61016c565b6040516100a191906103df565b60405180910390f35b6100c460048036038101906100bf91906103a3565b6101da565b6040516100d191906103df565b60405180910390f35b6100f460048036038101906100ef91906103a3565b6101fe565b005b6100fe61022a565b60405161010b91906103df565b60405180910390f35b6060600080548060200260200160405190810160405280929190818152602001828054801561016257602002820191906000526020600020905b81548152602001906001019080831161014e575b5050505050905090565b6000808054905082106101b4576040517f08c379a00000000000000000000000000000000000000000000000000000000081526004016101ab90610457565b60405180910390fd5b600082815481106101c8576101c7610477565b5b90600052602060002001549050919050565b600081815481106101ea57600080fd5b906000526020600020016000915090505481565b600081908060018154018082558091505060019003906000526020600020016000909190919091505550565b6000806000905060005b600080549050811015610280576000818154811061025557610254610477565b5b90600052602060002001548261026b91906104d5565b915080806102789061052b565b915050610234565b508091505090565b600081519050919050565b600082825260208201905092915050565b6000819050602082019050919050565b6000819050919050565b6102c7816102b4565b82525050565b60006102d983836102be565b60208301905092915050565b6000602082019050919050565b60006102fd82610288565b6103078185610293565b9350610312836102a4565b8060005b8381101561034357815161032a88826102cd565b9750610335836102e5565b925050600181019050610316565b5085935050505092915050565b6000602082019050818103600083015261036a81846102f2565b905092915050565b600080fd5b610380816102b4565b811461038b57600080fd5b50565b60008135905061039d81610377565b92915050565b6000602082840312156103b9576103b8610372565b5b60006103c78482850161038e565b91505092915050565b6103d9816102b4565b82525050565b60006020820190506103f460008301846103d0565b92915050565b600082825260208201905092915050565b7f496e64657820696e76616c696465000000000000000000000000000000000000600082015250565b6000610441600e836103fa565b915061044c8261040b565b602082019050919050565b6000602082019050818103600083015261047081610434565b9050919050565b7f4e487b7100000000000000000000000000000000000000000000000000000000600052603260045260246000fd5b7f4e487b7100000000000000000000000000000000000000000000000000000000600052601160045260246000fd5b60006104e0826102b4565b91506104eb836102b4565b9250827fffffffffffffffffffffffffffffffffffffffffffffffffffffffffffffffff038211156105205761051f6104a6565b5b828201905092915050565b6000610536826102b4565b91507fffffffffffffffffffffffffffffffffffffffffffffffffffffffffffffffff821415610569576105686104a6565b5b60018201905091905056fea2646970667358221220154ea1d55dbc629ba1968cb2ad1e570b9d1b7a5e83aaaddddaff5a32baa1fbdb64736f6c634300080c0033",
  "immutableReferences": {},
  "source": "// SPDX-License-Identifier: MIT\r\npragma solidity ^0.8.12;\r\n\r\ncontract GestionNombres {\r\n    uint[] public nombres;\r\n\r\n    constructor() {\r\n        // Optionnel : initialisation avec des valeurs\r\n        nombres.push(1);\r\n        nombres.push(2);\r\n        nombres.push(3);\r\n    }\r\n\r\n    function ajouterNombre(uint nombre) public {\r\n        nombres.push(nombre);\r\n    }\r\n\r\n    function getElement(uint index) public view returns (uint) {\r\n        require(index < nombres.length, \"Index invalide\");\r\n        return nombres[index];\r\n    }\r\n\r\n    function afficheTableau() public view returns (uint[] memory) {\r\n        return nombres;\r\n    }\r\n\r\n    function calculerSomme() public view returns (uint) {\r\n        uint somme = 0;\r\n        for (uint i = 0; i < nombres.length; i++) {\r\n            somme += nombres[i];\r\n        }\r\n        return somme;\r\n    }\r\n}",
  "sourcePath": "C:\\Users\\sanaa\\Downloads\\TPF-App\\contracts\\GestionNombres.sol",
  "compiler": {
    "name": "solc",
    "version": "0.8.12+commit.f00d7308.Emscripten.clang"
  },
  "schemaVersion": "3.4.16",
  "updatedAt": "2025-07-28T18:22:32.503Z",
  "devdoc": {
    "kind": "dev",
    "methods": {},
    "version": 1
  },
  "userdoc": {
    "kind": "user",
    "methods": {},
    "version": 1
  }
}