{
  "contractName": "Payment",
  "abi": [
    {
      "inputs": [
        {
          "internalType": "address",
          "name": "_recipient",
          "type": "address"
        }
      ],
      "stateMutability": "nonpayable",
      "type": "constructor"
    },
    {
      "inputs": [],
      "name": "recipient",
      "outputs": [
        {
          "internalType": "address",
          "name": "",
          "type": "address"
        }
      ],
      "stateMutability": "view",
      "type": "function"
    },
    {
      "inputs": [],
      "name": "receivePayment",
      "outputs": [],
      "stateMutability": "payable",
      "type": "function"
    },
    {
      "inputs": [],
      "name": "withdraw",
      "outputs": [],
      "stateMutability": "nonpayable",
      "type": "function"
    },
    {
      "inputs": [],
      "name": "getBalance",
      "outputs": [
        {
          "internalType": "uint256",
          "name": "",
          "type": "uint256"
        }
      ],
      "stateMutability": "view",
      "type": "function"
    }
  ],
  "bytecode": "0x608060405234801561001057600080fd5b50604051610535380380610535833981810160405281019061003291906100db565b806000806101000a81548173ffffffffffffffffffffffffffffffffffffffff021916908373ffffffffffffffffffffffffffffffffffffffff16021790555050610108565b600080fd5b600073ffffffffffffffffffffffffffffffffffffffff82169050919050565b60006100a88261007d565b9050919050565b6100b88161009d565b81146100c357600080fd5b50565b6000815190506100d5816100af565b92915050565b6000602082840312156100f1576100f0610078565b5b60006100ff848285016100c6565b91505092915050565b61041e806101176000396000f3fe60806040526004361061003f5760003560e01c806312065fe0146100445780633ccfd60b1461006f57806366d003ac14610086578063835c19f3146100b1575b600080fd5b34801561005057600080fd5b506100596100bb565b604051610066919061023c565b60405180910390f35b34801561007b57600080fd5b506100846100c3565b005b34801561009257600080fd5b5061009b6101ba565b6040516100a89190610298565b60405180910390f35b6100b96101de565b005b600047905090565b60008054906101000a900473ffffffffffffffffffffffffffffffffffffffff1673ffffffffffffffffffffffffffffffffffffffff163373ffffffffffffffffffffffffffffffffffffffff1614610151576040517f08c379a000000000000000000000000000000000000000000000000000000000815260040161014890610336565b60405180910390fd5b60008054906101000a900473ffffffffffffffffffffffffffffffffffffffff1673ffffffffffffffffffffffffffffffffffffffff166108fc479081150290604051600060405180830381858888f193505050501580156101b7573d6000803e3d6000fd5b50565b60008054906101000a900473ffffffffffffffffffffffffffffffffffffffff1681565b60003411610221576040517f08c379a0000000000000000000000000000000000000000000000000000000008152600401610218906103c8565b60405180910390fd5b565b6000819050919050565b61023681610223565b82525050565b6000602082019050610251600083018461022d565b92915050565b600073ffffffffffffffffffffffffffffffffffffffff82169050919050565b600061028282610257565b9050919050565b61029281610277565b82525050565b60006020820190506102ad6000830184610289565b92915050565b600082825260208201905092915050565b7f5365756c206c652064657374696e61746169726520706575742072657469726560008201527f72206c657320666f6e6473000000000000000000000000000000000000000000602082015250565b6000610320602b836102b3565b915061032b826102c4565b604082019050919050565b6000602082019050818103600083015261034f81610313565b9050919050565b7f4c65206d6f6e74616e7420646f6974206574726520737570657269657572206160008201527f2030000000000000000000000000000000000000000000000000000000000000602082015250565b60006103b26022836102b3565b91506103bd82610356565b604082019050919050565b600060208201905081810360008301526103e1816103a5565b905091905056fea264697066735822122037723926e50c396bd9dd1ea75947e1f9fc37ad991e1204bd1b268d694bedca4e64736f6c634300080c0033",
  "immutableReferences": {},
  "source": "// SPDX-License-Identifier: MIT\r\npragma solidity ^0.8.12;\r\n\r\ncontract Payment {\r\n    address public recipient;\r\n\r\n    constructor(address _recipient) {\r\n        recipient = _recipient;\r\n    }\r\n\r\n    function receivePayment() public payable {\r\n        require(msg.value > 0, \"Le montant doit etre superieur a 0\");\r\n        // Les fonds sont stocks dans le contrat\r\n    }\r\n\r\n    function withdraw() public {\r\n        require(msg.sender == recipient, \"Seul le destinataire peut retirer les fonds\");\r\n        payable(recipient).transfer(address(this).balance);\r\n    }\r\n\r\n    function getBalance() public view returns (uint) {\r\n        return address(this).balance;\r\n    }\r\n}",
  "sourcePath": "C:\\Users\\sanaa\\Downloads\\TPF-App\\contracts\\Payment.sol",
  "compiler": {
    "name": "solc",
    "version": "0.8.12+commit.f00d7308.Emscripten.clang"
  },
  "schemaVersion": "3.4.16",
  "updatedAt": "2025-07-28T18:22:32.510Z",
  "devdoc": {
    "kind": "dev",
    "methods": {},
    "version": 1
  },
  "userdoc": {
    "kind": "user",
    "methods": {},
    "version": 1
  }
}